{
  "contractName": "MediaPlatform",
  "abi": [
    {
      "anonymous": false,
      "inputs": [
        {
          "indexed": false,
          "internalType": "uint256",
          "name": "id",
          "type": "uint256"
        },
        {
          "indexed": false,
          "internalType": "string",
          "name": "title",
          "type": "string"
        },
        {
          "indexed": false,
          "internalType": "string",
          "name": "mediaHash",
          "type": "string"
        },
        {
          "indexed": false,
          "internalType": "uint256",
          "name": "tipAmount",
          "type": "uint256"
        },
        {
          "indexed": false,
          "internalType": "address payable",
          "name": "owner",
          "type": "address"
        }
      ],
      "name": "MediaCreated",
      "type": "event"
    },
    {
      "anonymous": false,
      "inputs": [
        {
          "indexed": false,
          "internalType": "uint256",
          "name": "id",
          "type": "uint256"
        },
        {
          "indexed": false,
          "internalType": "string",
          "name": "title",
          "type": "string"
        },
        {
          "indexed": false,
          "internalType": "string",
          "name": "mediaHash",
          "type": "string"
        },
        {
          "indexed": false,
          "internalType": "uint256",
          "name": "tipAmount",
          "type": "uint256"
        },
        {
          "indexed": false,
          "internalType": "address payable",
          "name": "owner",
          "type": "address"
        }
      ],
      "name": "MediaTipped",
      "type": "event"
    },
    {
      "constant": true,
      "inputs": [
        {
          "internalType": "uint256",
          "name": "",
          "type": "uint256"
        }
      ],
      "name": "mediaMap",
      "outputs": [
        {
          "internalType": "uint256",
          "name": "id",
          "type": "uint256"
        },
        {
          "internalType": "string",
          "name": "title",
          "type": "string"
        },
        {
          "internalType": "string",
          "name": "mediaHash",
          "type": "string"
        },
        {
          "internalType": "uint256",
          "name": "tipAmount",
          "type": "uint256"
        },
        {
          "internalType": "address payable",
          "name": "owner",
          "type": "address"
        }
      ],
      "payable": false,
      "stateMutability": "view",
      "type": "function"
    },
    {
      "constant": true,
      "inputs": [],
      "name": "mediaTotal",
      "outputs": [
        {
          "internalType": "uint256",
          "name": "",
          "type": "uint256"
        }
      ],
      "payable": false,
      "stateMutability": "view",
      "type": "function"
    },
    {
      "constant": false,
      "inputs": [
        {
          "internalType": "string",
          "name": "_title",
          "type": "string"
        },
        {
          "internalType": "string",
          "name": "_mediaHash",
          "type": "string"
        }
      ],
      "name": "createMedia",
      "outputs": [],
      "payable": false,
      "stateMutability": "nonpayable",
      "type": "function"
    },
    {
      "constant": false,
      "inputs": [
        {
          "internalType": "uint256",
          "name": "_id",
          "type": "uint256"
        }
      ],
      "name": "tipMedia",
      "outputs": [],
      "payable": true,
      "stateMutability": "payable",
      "type": "function"
    }
  ],
  "bytecode": "0x60806040526000805534801561001457600080fd5b50610e0b806100246000396000f3fe60806040526004361061003f5760003560e01c806305cf5e261461004457806322c69c7214610072578063b22ce2251461009d578063fbdf84b9146101fc575b600080fd5b6100706004803603602081101561005a57600080fd5b810190808035906020019092919050505061035d565b005b34801561007e57600080fd5b50610087610821565b6040518082815260200191505060405180910390f35b3480156100a957600080fd5b506101fa600480360360408110156100c057600080fd5b81019080803590602001906401000000008111156100dd57600080fd5b8201836020820111156100ef57600080fd5b8035906020019184600183028401116401000000008311171561011157600080fd5b91908080601f016020809104026020016040519081016040528093929190818152602001838380828437600081840152601f19601f8201169050808301925050505050505091929192908035906020019064010000000081111561017457600080fd5b82018360208201111561018657600080fd5b803590602001918460018302840111640100000000831117156101a857600080fd5b91908080601f016020809104026020016040519081016040528093929190818152602001838380828437600081840152601f19601f820116905080830192505050505050509192919290505050610827565b005b34801561020857600080fd5b506102356004803603602081101561021f57600080fd5b8101908080359060200190929190505050610b66565b6040518086815260200180602001806020018581526020018473ffffffffffffffffffffffffffffffffffffffff1673ffffffffffffffffffffffffffffffffffffffff168152602001838103835287818151815260200191508051906020019080838360005b838110156102b757808201518184015260208101905061029c565b50505050905090810190601f1680156102e45780820380516001836020036101000a031916815260200191505b50838103825286818151815260200191508051906020019080838360005b8381101561031d578082015181840152602081019050610302565b50505050905090810190601f16801561034a5780820380516001836020036101000a031916815260200191505b5097505050505050505060405180910390f35b60008111801561036f57506000548111155b6103e1576040517f08c379a000000000000000000000000000000000000000000000000000000000815260040180806020018281038252600a8152602001807f494420696e76616c69640000000000000000000000000000000000000000000081525060200191505060405180910390fd5b6103e9610cec565b600160008381526020019081526020016000206040518060a001604052908160008201548152602001600182018054600181600116156101000203166002900480601f0160208091040260200160405190810160405280929190818152602001828054600181600116156101000203166002900480156104aa5780601f1061047f576101008083540402835291602001916104aa565b820191906000526020600020905b81548152906001019060200180831161048d57829003601f168201915b50505050508152602001600282018054600181600116156101000203166002900480601f01602080910402602001604051908101604052809291908181526020018280546001816001161561010002031660029004801561054c5780601f106105215761010080835404028352916020019161054c565b820191906000526020600020905b81548152906001019060200180831161052f57829003601f168201915b50505050508152602001600382015481526020016004820160009054906101000a900473ffffffffffffffffffffffffffffffffffffffff1673ffffffffffffffffffffffffffffffffffffffff1673ffffffffffffffffffffffffffffffffffffffff168152505090506000816080015190508073ffffffffffffffffffffffffffffffffffffffff166108fc349081150290604051600060405180830381858888f19350505050158015610606573d6000803e3d6000fd5b50348260600151018260600181815250508160016000858152602001908152602001600020600082015181600001556020820151816001019080519060200190610651929190610d31565b50604082015181600201908051906020019061066e929190610d31565b506060820151816003015560808201518160040160006101000a81548173ffffffffffffffffffffffffffffffffffffffff021916908373ffffffffffffffffffffffffffffffffffffffff1602179055509050507f5a82a816e04e58e6f5c2c6e1fd4e54d715a0ea4949bc9e383a2725ee63785de083836020015184604001518560600151856040518086815260200180602001806020018581526020018473ffffffffffffffffffffffffffffffffffffffff1673ffffffffffffffffffffffffffffffffffffffff168152602001838103835287818151815260200191508051906020019080838360005b8381101561077757808201518184015260208101905061075c565b50505050905090810190601f1680156107a45780820380516001836020036101000a031916815260200191505b50838103825286818151815260200191508051906020019080838360005b838110156107dd5780820151818401526020810190506107c2565b50505050905090810190601f16801561080a5780820380516001836020036101000a031916815260200191505b5097505050505050505060405180910390a1505050565b60005481565b600082511161089e576040517f08c379a00000000000000000000000000000000000000000000000000000000081526004018080602001828103825260178152602001807f5469746c652063616e6e6f7420626520656d707479212100000000000000000081525060200191505060405180910390fd5b6000815111610915576040517f08c379a00000000000000000000000000000000000000000000000000000000081526004018080602001828103825260118152602001807f4e6f204d656469612050726f766964656400000000000000000000000000000081525060200191505060405180910390fd5b60008081548092919060010191905055506040518060a001604052806000548152602001838152602001828152602001600081526020013373ffffffffffffffffffffffffffffffffffffffff1681525060016000805481526020019081526020016000206000820151816000015560208201518160010190805190602001906109a0929190610d31565b5060408201518160020190805190602001906109bd929190610d31565b506060820151816003015560808201518160040160006101000a81548173ffffffffffffffffffffffffffffffffffffffff021916908373ffffffffffffffffffffffffffffffffffffffff1602179055509050507f34d96bcf30d6311343f61ceda4cb2988c2f2ed78ecc289cab8d97678a9d5454a60005483836000336040518086815260200180602001806020018581526020018473ffffffffffffffffffffffffffffffffffffffff1673ffffffffffffffffffffffffffffffffffffffff168152602001838103835287818151815260200191508051906020019080838360005b83811015610abd578082015181840152602081019050610aa2565b50505050905090810190601f168015610aea5780820380516001836020036101000a031916815260200191505b50838103825286818151815260200191508051906020019080838360005b83811015610b23578082015181840152602081019050610b08565b50505050905090810190601f168015610b505780820380516001836020036101000a031916815260200191505b5097505050505050505060405180910390a15050565b6001602052806000526040600020600091509050806000015490806001018054600181600116156101000203166002900480601f016020809104026020016040519081016040528092919081815260200182805460018160011615610100020316600290048015610c185780601f10610bed57610100808354040283529160200191610c18565b820191906000526020600020905b815481529060010190602001808311610bfb57829003601f168201915b505050505090806002018054600181600116156101000203166002900480601f016020809104026020016040519081016040528092919081815260200182805460018160011615610100020316600290048015610cb65780601f10610c8b57610100808354040283529160200191610cb6565b820191906000526020600020905b815481529060010190602001808311610c9957829003601f168201915b5050505050908060030154908060040160009054906101000a900473ffffffffffffffffffffffffffffffffffffffff16905085565b6040518060a0016040528060008152602001606081526020016060815260200160008152602001600073ffffffffffffffffffffffffffffffffffffffff1681525090565b828054600181600116156101000203166002900490600052602060002090601f016020900481019282601f10610d7257805160ff1916838001178555610da0565b82800160010185558215610da0579182015b82811115610d9f578251825591602001919060010190610d84565b5b509050610dad9190610db1565b5090565b610dd391905b80821115610dcf576000816000905550600101610db7565b5090565b9056fea265627a7a72315820a8eddf16801c4cbad4381aa6a9515d5127a1713ff9f9a54f08fc2a00135d3b6164736f6c634300050c0032",
  "source": "pragma solidity ^0.5.0;\r\n\r\ncontract MediaPlatform{\r\n\r\n    uint public mediaTotal = 0;\r\n    mapping(uint => Media) public mediaMap;\r\n\r\n    struct Media{\r\n        uint id;\r\n        string title;\r\n        string mediaHash;\r\n        uint tipAmount;\r\n        address payable owner;\r\n    }\r\n\r\n    event MediaCreated(\r\n        uint id,\r\n        string title,\r\n        string mediaHash,\r\n        uint tipAmount,\r\n        address payable owner\r\n    );\r\n\r\n    event MediaTipped(\r\n        uint id,\r\n        string title,\r\n        string mediaHash,\r\n        uint tipAmount,\r\n        address payable owner\r\n    );\r\n\r\n    function createMedia(string memory _title, string memory _mediaHash) public {\r\n        require(bytes(_title).length>0,\"Title cannot be empty!!\");\r\n        require(bytes(_mediaHash).length>0,\"No Media Provided\");\r\n\r\n        mediaTotal++;\r\n        mediaMap[mediaTotal] = Media(mediaTotal, _title, _mediaHash, 0, msg.sender);\r\n        emit MediaCreated(mediaTotal, _title, _mediaHash, 0, msg.sender);\r\n    }\r\n\r\n    function tipMedia(uint _id) public payable{\r\n        require(_id>0 && _id<=mediaTotal,\"ID invalid\");\r\n        Media memory _media = mediaMap[_id];\r\n        address payable _owner = _media.owner;\r\n        address(_owner).transfer(msg.value);\r\n        _media.tipAmount = _media.tipAmount + msg.value;\r\n        mediaMap[_id] = _media;\r\n        emit MediaTipped(_id,_media.title,_media.mediaHash,_media.tipAmount, _owner);\r\n    }\r\n}",
  "sourcePath": "E:/WORK/projects/Blockchain Projects/MediaSec/src/contracts/MediaPlatform.sol",
  "compiler": {
    "name": "solc",
    "version": "0.5.12+commit.7709ece9.Emscripten.clang"
  },
  "schemaVersion": "3.0.20",
  "updatedAt": "2020-01-08T18:25:07.261Z",
  "networkType": "ethereum",
  "devdoc": {
    "methods": {}
  },
  "userdoc": {
    "methods": {}
  }
}